:020000040800F2
:1000000000300020550E00089502000897020008F5
:10001000990200089B0200089D02000800000000F1
:100020000000000000000000000000009F02000827
:10003000A102000800000000A3020008A5020008B9
:10004000A50E0008A50E0008A50E0008A50E0008C4
:10005000A50E0008A50E0008A50E0008A50E0008B4
:10006000A50E0008A50E0008A50E0008A50E0008A4
:10007000A50E0008A50E0008A50E0008A50E000894
:10008000A50E0008A50E0008A50E0008A50E000884
:10009000A50E0008A50E0008A50E0008A50E000874
:1000A000A50E0008A50E0008A50E0008A50E000864
:1000B000A50E0008A50E000800000000A50E00080F
:1000C000A50E00080000000000000000A50E0008BA
:1000D00000000000A50E0008A50E0008A50E0008EF
:1000E000A50E0008A50E000800000000000000009A
:1000F0000000000000000000000000000000000000
:1001000000000000000000000000000000000000EF
:100110000000000000000000A50E0008A50E000869
:1001200000000000000000000000000000000000CF
:1001300000000000000000000000000000000000BF
:10014000A50E0008A50E0008000000000000000039
:10015000000000000000000000000000000000009F
:10016000000000000000000000000000000000008F
:10017000000000000000000000000000000000007F
:0801800000000000A50E0008BC
:1001880010B5054C237833B9044B13B10448AFF3C9
:1001980000800123237010BD0C0000200000000027
:1001A800000F000808B5034B1BB103490348AFF320
:1001B800008008BD0000000010000020000F0008AB
:1001C80030B587B0002401940294039404940594F4
:1001D8000D4B5A6942F480225A615B6903F480230B
:1001E8000093009B094D22460821284600F0BAFDDD
:1001F80008230193012302930394049401A9284638
:1002080000F0ECFC07B030BD0010024000040048CC
:1002180072B6FEE700B591B02422002107A800F0CD
:1002280063FE00230193029303930493059302232F
:10023800069301230A9310230B9306A800F0A8F84D
:1002480068B90F230193002102910391049105914C
:1002580001A800F0EFFB20B911B05DF804FBFFF72F
:10026800D7FFFFF7D5FF000008B500F059F8FFF7F2
:10027800D1FFFFF7A5FF0821034800F078FD4FF4F0
:100288007A7000F071F8F6E700040048FEE7FEE730
:10029800FEE7FEE7FEE770477047704708B500F0D5
:1002A80051F808BD82B00A4B9A6942F001029A617E
:1002B8009A6902F001020092009ADA6942F08052CB
:1002C800DA61DB6903F080530193019B02B0704748
:1002D8000010024010B504460E4B18784FF47A739C
:1002E800B3FBF0F30C4A1068B0FBF3F000F08EFD9E
:1002F80068B90F2C01D901200AE0002221464FF0ED
:10030800FF3000F04FFD054B1C60002000E001208D
:1003180010BD00BF000000200800002004000020DD
:1003280008B5074A136843F010031360032000F070
:1003380027FD0020FFF7CEFFFFF7B4FF002008BD20
:1003480000200240034A1168034B1B780B441360DA
:10035800704700BF2800002000000020014B1868EB
:10036800704700BF2800002038B50446FFF7F6FFA5
:100378000546B4F1FF3F02D0044B1B781C44FFF73D
:10038800EDFF401BA042FAD338BD00BF000000209B
:10039800002800F0018370B582B00446036813F0AA
:1003A800010F3BD0B54B5B6803F00C03042B1ED048
:1003B800B24B5B6803F00C03082B13D06368B3F5EA
:1003C800803F68D0002B40F0928003F1804303F512
:1003D80004331A6822F480321A601A6822F48022E0
:1003E8001A605DE0A54B5B6813F4803FE6D04FF4DC
:1003F800003393FAA3F3A14B19684FF4003393FA2F
:10040800A3F3B3FA83F303F01F03012202FA03F301
:100418000B4203D06368002B00F0C082236813F0FE
:10042800020F00F0C580954B5B6813F00C0F00F0CD
:100438009C80924B5B6803F00C03082B00F08F80C4
:100448002369002B00F0F280012292FAA2F3B3FA9A
:1004580083F303F1845303F584139B001A60FFF7B9
:100468007DFF0546022393FAA3F3844B1968022300
:1004780093FAA3F3B3FA83F303F01F03012202FAFA
:1004880003F30B4240F0C380FFF768FF401B0228CC
:10049800E8D903208BE2794A136843F48033136068
:1004A800764AD36A23F00F03A1680B43D3626368CB
:1004B800002B36D0FFF752FF05464FF4003393FA6E
:1004C800A3F36E4B19684FF4003393FAA3F3B3FA0E
:1004D80083F303F01F03012202FA03F30B429DD1B9
:1004E800FFF73CFF401B6428E7D903205FE2B3F520
:1004F800A02F09D0614B1A6822F480321A601A685A
:1005080022F480221A60CBE703F18043A3F53C3341
:100518001A6842F480221A601A6842F480321A601B
:10052800BEE7FFF71BFF05464FF4003393FAA3F32A
:10053800524B19684FF4003393FAA3F3B3FA83F3D9
:1005480003F01F03012202FA03F30B423FF466AFE4
:10055800FFF704FF401B6428E6D9032027E2474B36
:100568005B6813F4803F7FF46BAF022393FAA3F325
:10057800424B1968022393FAA3F3B3FA83F303F007
:100588001F03012202FA03F30B4203D023699342AB
:1005980040F006823948036823F0F8036169F822BD
:1005A80092FAA2F2B2FA82F201FA02F2134303605B
:1005B800236813F0080F00F08D80A369002B61D029
:1005C800012191FAA1F2B2FA82F22D4B13449B0059
:1005D8001960FFF7C3FE0546022393FAA3F293FAC4
:1005E800A3F293FAA3F2254A516A93FAA3F3B3FA52
:1005F80083F303F01F03012202FA03F30B4269D1CC
:10060800FFF7ACFE401B0228E6D90320CFE11B48C8
:10061800036823F0F8036169F82292FAA2F2B2FAA9
:1006280082F201FA02F213430360C1E7012393FA4D
:10063800A3F3B3FA83F303F1845303F584139B0004
:1006480000221A60FFF78AFE0546022393FAA3F3F5
:100658000A4B1968022393FAA3F3B3FA83F303F05E
:100668001F03012202FA03F30B42A1D0FFF776FE23
:10067800401B0228E9D9032099E100BF001002407D
:1006880020819010012292FAA2F2B2FA82F2B74BBC
:1006980013449B0000221A60FFF760FE0546022300
:1006A80093FAA3F293FAA3F293FAA3F2B04A516A27
:1006B80093FAA3F3B3FA83F303F01F03012202FAB8
:1006C80003F30B4206D0FFF749FE401B0228E6D988
:1006D80003206CE1236813F0040F00F0A980A44BF9
:1006E800DB6913F0805F0BD1A14BDA6942F08052CD
:1006F800DA61DB6903F080530193019B012500E077
:1007080000259C4B1B6813F4807F10D0E368012BF5
:1007180021D063BB03F1804303F504331A6A22F046
:1007280001021A621A6A22F004021A6218E0914A57
:10073800136843F480731360FFF710FE06468D4B71
:100748001B6813F4807FE1D1FFF708FE801B642843
:10075800F5D903202BE1864A136A43F0010313629B
:10076800E368002B3CD0FFF7F9FD06462EE0052B89
:1007780009D07F4B1A6A22F001021A621A6A22F023
:1007880004021A62ECE77A4B1A6A42F004021A620F
:100798001A6A42F001021A62E2E7022393FAA3F30B
:1007A800734B596A022393FAA3F3B3FA83F303F062
:1007B8001F03012202FA03F3194238D1FFF7CEFDD5
:1007C800801B41F28833984200F2EC80022393FAAE
:1007D800A3F293FAA3F3002BDFD0654B196AE1E784
:1007E800FFF7BCFD064618E0022393FAA3F3604B1B
:1007F800596A022393FAA3F3B3FA83F303F01F03AE
:10080800012202FA03F3194211D0FFF7A7FD801B5A
:1008180041F28833984200F2C780022393FAA3F288
:1008280093FAA3F3002BDFD0514B196AE1E7B5BB6C
:10083800E369002B00F0BA804D4A526802F00C02BE
:10084800082A00F09980022B2FD04FF0807393FA7A
:10085800A3F3B3FA83F303F1845303F584139B00E2
:1008680000221A60FFF77AFD04464FF0007393FAEE
:10087800A3F33F4B19684FF0007393FAA3F3B3FA4D
:1008880083F303F01F03012202FA03F319426BD02A
:10089800FFF764FD001B0228E7D9032087E0344AEC
:1008A800D36923F08053D361C2E74FF0807393FA82
:1008B800A3F3B3FA83F303F1845303F584139B0082
:1008C80000221A60FFF74AFD05464FF0007393FABD
:1008D800A3F3274B19684FF0007393FAA3F3B3FA05
:1008E80083F303F01F03012202FA03F3194206D02F
:1008F800FFF734FD401B0228E7D9032057E01C49C5
:100908004B6823F47413626A206A024313434B60F2
:100918004FF0807393FAA3F3B3FA83F303F184538C
:1009280003F584139B0001221A60FFF717FD0446A4
:100938004FF0007393FAA3F30D4B19684FF000734F
:1009480093FAA3F3B3FA83F303F01F03012202FA25
:1009580003F3194206D1FFF701FD001B0228E7D96E
:10096800032024E0002022E0002020E020819010D5
:100978000010024000700040012B1AD0104B5B6839
:1009880003F48031226A914215D103F47013626A2C
:10099800934212D100200AE001207047012006E0AE
:1009A800012004E0032002E0032000E0002002B060
:1009B80070BD0120FBE70120F9E70120F7E700BF40
:1009C80000100240164B5B6803F00C02082A01D0A5
:1009D8001448704703F470114FF4701292FAA2F29F
:1009E800B2FA82F221FA02F20F49885C0C4AD26A02
:1009F80002F00F020F2191FAA1F1B1FA81F1CA4078
:100A08000A498A5C13F4803F05D0064BB3FBF2F326
:100A180000FB03F07047064B03FB00F0704700BF74
:100A28000010024000127A00180F0008280F000872
:100A380000093D00002800F0BE8070B50D46044650
:100A4800614B1B6803F007038B420BD25E4A1368A5
:100A580023F007030B431360136803F007038B426B
:100A680040F0AB80236813F0020F06D0574A536852
:100A780023F0F003A1680B435360236813F0010FC0
:100A88005AD06368012B2DD0022B40D0022292FA53
:100A9800A2F24E4A1068022292FAA2F2B2FA82F246
:100AA80002F01F02012101FA02F2104200F08780D1
:100AB80046494A6822F0030213434B60FFF74EFC95
:100AC8000646424B5B6803F00C036268B3EB820F87
:100AD80032D0FFF743FC801B41F288339842F0D9AB
:100AE800032067E04FF4003292FAA2F2374A106806
:100AF8004FF4003292FAA2F2B2FA82F202F01F0226
:100B0800012101FA02F20242D2D1012052E04FF053
:100B1800007292FAA2F22D4A10684FF0007292FA0F
:100B2800A2F2B2FA82F202F01F02012101FA02F2E5
:100B38001042BDD101203DE0234B1B6803F00703A1
:100B4800AB420AD9204A136823F007032B431360EA
:100B5800136803F00703AB4233D1236813F0040F83
:100B680006D01A4A536823F4E063E1680B435360E4
:100B7800236813F0080F07D0144A536823F460530E
:100B8800216943EAC1035360FFF71CFF0F4B5B6801
:100B980003F0F003F02292FAA2F2B2FA82F2D34002
:100BA8000B4AD35CD8400B4B18600B4B1868FFF707
:100BB80091FB002070BD012070470120FAE7012059
:100BC800F8E70120F6E700BF0020024000100240CD
:100BD800380F00080800002004000020F0B583B09A
:100BE800002336E0032400E00024B4403C430235EF
:100BF800584E46F82540584C2568D44325EA020645
:100C08004F6817F4803F01D042EA0506524D2E6026
:100C18006D6804EA05064F6817F4003F01D042EA00
:100C280005064D4D6E60AD6804EA05064F6817F479
:100C3800801F01D042EA0506474DAE60ED682C40A2
:100C48004E6816F4001F01D042EA0504424AD460F7
:100C580001330A6832FA03F47AD001249C40224016
:100C6800F6D04D686E1E012E03D9112D01D0122D1C
:100C780012D186685F000325BD4026EA0506CD68C7
:100C8800BD4035438560466826EA04064D68C5F3CD
:100C980000149C4034434460C7685E000325B54097
:100CA800EC4327EA05078D68B5403D43C5604D68AC
:100CB800022D01D0122D13D1DF08083750F827E094
:100CC80003F007054FEA850C0F2505FA0CF52EEA07
:100CD800050E0D6905FA0CF545EA0E0540F8275092
:100CE800056825404C6804F00304B4402C430460B4
:100CF8004C6814F0805FABD0184CA56945F001052D
:100D0800A561A46904F001040194019C9D08AE1C2E
:100D1800104C54F8267003F00304A6000F24B440C6
:100D280027EA0407B0F1904F3FF45EAF0C4CA042A5
:100D38000AD004F58064A04208D004F58064A0427B
:100D48003FF450AF052450E701244EE702244CE756
:100D580003B0F0BD00000140000401400010024053
:100D6800000400480AB18161704781627047436995
:100D780001EA030221EA030141EA02418161704765
:100D8800074AD36823F4E0631B041B0C000200F439
:100D9800E060034343F0BF6343F40033D36070471C
:100DA80000ED00E030B4174BDB68C3F30223C3F156
:100DB8000704042C28BF04241D1D062D18D9033B45
:100DC8004FF0FF3505FA04F421EA0401994005FAC9
:100DD80003F322EA0303194300280BDB0901C9B214
:100DE80000F1604000F5614080F8001330BC7047A6
:100DF8000023E5E700F00F000901C9B2024B1954BE
:100E0800F4E700BF00ED00E014ED00E00138B0F1B8
:100E1800807F0AD2064B5860064AF02182F82310D8
:100E28000020986007221A6070470120704700BFB1
:100E380010E000E000ED00E0034AD2F8883043F407
:100E48007003C2F88830704700ED00E0DFF834D056
:100E58000D480E490E4A002302E0D458C45004330A
:100E6800C4188C42F9D30B4A0B4C002301E01360E1
:100E78000432A242FBD3FFF7DFFF00F011F8FFF7BF
:100E8800F3F9FEE700300020000000200C000020ED
:100E9800500F00080C0000202C000020FEE7000086
:100EA80070B50D4D0D4C641BA4100026A64209D147
:100EB8000B4D0C4C00F020F8641BA4100026A64231
:100EC80005D170BD55F8043B98470136EEE755F853
:100ED800043B98470136F2E7480F0008480F00081E
:100EE800480F00084C0F000802440346934200D103
:100EF800704703F8011BF9E7F8B500BFF8BC08BC58
:100F08009E467047F8B500BFF8BC08BC9E467047BF
:100F180002030405060708090A0B0C0D0E0F101032
:100F28000102030405060708090A0B0C0D0E0F1031
:100F38000000000000000000010203040607080981
:040F4800AD010008EF
:040F4C00890100080F
:0C0F5000010000001000000000127A00F8
:0400000508000E558C
:00000001FF
