:020000040800F2
:1000000000500020613B00086F02000871020008E8
:100010007302000875020008770200080000000063
:10002000000000000000000000000000790200084D
:100030007B020008000000007D0200087F0200082B
:10004000A93B0008A93B0008A93B0008A93B000800
:10005000A93B0008A93B0008A93B0008A93B0008F0
:10006000A93B0008A93B0008A93B0008A93B0008E0
:10007000A93B0008A93B0008A93B0008A93B0008D0
:10008000A93B0008A93B0008A93B0008A93B0008C0
:1000900089020008A93B0008A93B0008A93B000809
:1000A000A93B0008A93B0008A93B0008A93B0008A0
:1000B000A93B0008A93B0008A93B0008A93B000890
:1000C000A93B0008A93B0008A93B0008A93B000880
:1000D000A93B0008A93B0008A93B0008A93B000870
:1000E000A93B0008A93B0008A93B0008000000004C
:1000F0000000000000000000000000000000000000
:0C01000000000000000000005FF808F1A3
:10010C0010B5054C237833B9044B13B10448AFF345
:10011C0000800123237010BD7C0100200000000032
:10012C00F43B000808B5034B1BB103490348AFF37C
:10013C00008008BD0000000080010020F43B000896
:10014C00034613F8012B002AFBD1181A013870470B
:10015C0030B589B000240494059406940794184B88
:10016C009A6942F010029A619A6902F010020192A7
:10017C00019A9A6942F020029A619A6902F020026F
:10018C000292029A9A6942F004029A619B6903F006
:10019C0004030393039B0B4D01224FF4005128469B
:1001AC0002F002FE4FF400530493012305930694CE
:1001BC000223079304A9284602F0E6FC09B030BDDF
:1001CC00001002400010014072B6FEE700B595B079
:1001DC0000230D930F9310930593069307930893A5
:1001EC000993019302930393049301210A914FF411
:1001FC0080320B920C930E910223119312924FF4B6
:10020C00801313930AA802F041F9D0B90F23059378
:10021C0002230693002307934FF4806208920993FC
:10022C00012105A802F070FB68B9102301934FF46B
:10023C008003049301A802F01DFC30B915B05DF8E1
:10024C0004FBFFF7C1FFFFF7BFFFFFF7BDFF08B5CA
:10025C0002F0E2F8FFF7BAFFFFF77AFF00F038F888
:10026C00FEE7FEE7FEE7FEE7FEE7FEE770477047B6
:10027C00704708B502F0E2F808BD000008B5024866
:10028C0000F034FF08BD00BF5010002082B00E4BB0
:10029C009A6942F001029A619A6902F00102009295
:1002AC00009ADA6942F08052DA61DB6903F080531C
:1002BC000193019B054A536823F0E06343F00073FC
:1002CC00536002B0704700BF0010024000000140B4
:1002DC0008B500220F49104802F0D7FD70B90F493C
:1002EC000D4802F0E9FD60B90D490B4803F0EBFB3A
:1002FC0050B9094802F0E7FD48B908BDFFF764FFA3
:10030C00EDE7FFF761FFEFE7FFF75EFFF1E7FFF7C0
:10031C005BFFF2E700000020BC0300206C00002013
:10032C005000002012230B80004870471C00002056
:10033C0004230B80004870473000002000239342B8
:10034C0017D230B40BE0373401F8134000015C00D5
:10035C00013400250D550133DBB2934207D2040F53
:10036C00B0F1204FEFD2303401F81340EEE730BC3F
:10037C007047704738B50A4B186804331C6804334F
:10038C001B68C01800D138BD064D0822A91CFFF708
:10039C00D5FF042205F112012046FFF7CFFFF2E74B
:1003AC00E8F7FF1F3400002008B51A230B80FFF775
:1003BC00E1FF014808BD00BF3400002008B50A4623
:1003CC0028B90549054803F0D4F9034808BD02498A
:1003DC00024803F0CEF9F8E7800600200C3C000838
:1003EC0010B50A46034C2146034803F0C2F92046D7
:1003FC0010BD00BF80060020243C000808B50A464A
:10040C0028B90549054803F0B4F9034808BD024969
:10041C00024803F0AEF9F8E780060020383C0008EB
:10042C0008B50A4628B90549054803F0A2F903485E
:10043C0008BD0249024803F09CF9F8E78006002049
:10044C00443C0008002070470020704710B5064C53
:10045C0000220649204603F03DFB0549204603F0E7
:10046C0041FB002010BD00BFBC030020680C002025
:10047C0080080020094BD3F8B832D3F814320BB1F2
:10048C000120704710B5054C0A460146204603F082
:10049C0021FB204603F02CFB10BD00BFBC03002049
:1004AC0030B585B004460378312B0CD0302B20D0DE
:1004BC00194D2146284603F015FB284603F032FB64
:1004CC00002005B030BD00224FF40051134802F05B
:1004DC006BFC134B6D460FCB07C525F8023B1B0C71
:1004EC002B706846FFF72CFE81B26846FFF7C2FFFF
:1004FC00DEE701224FF40051084802F055FC094B8D
:10050C006D460FCB85E80F002846FFF719FE81B228
:10051C002846FFF7AFFFCBE7BC03002000100140DB
:10052C00543C0008643C0008022805D8DFE800F0C1
:10053C0005040200012070470220704702680E4B30
:10054C009A4200D0704700B583B003F5DA33DA690C
:10055C0042F40002DA61DB6903F400030193019BAE
:10056C0000221146142002F037FC142002F068FC23
:10057C0003B05DF804FB00BF005C004008B500F55B
:10058C002C71D0F8E80202F0B6FC08BD08B501EBFE
:10059C00810300EBC303D3F87C21D0F8E80202F00E
:1005AC00D7FC08BD08B501EB810300EBC303DA6B84
:1005BC00D0F8E80202F012FD08BD08B5D0F8E80248
:1005CC0002F0B3FD08BD10B504468368022B09D1B7
:1005DC000121D4F8E80202F091FDD4F8E80202F00F
:1005EC0065FD10BDFFF7F0FDF2E7000010B5044605
:1005FC00D0F8E80202F085FDA36923B1024A136921
:10060C0043F00603136110BD00ED00E008B5D0F80F
:10061C00E80202F07FFD08BD10B504461D48C0F885
:10062C00E842C4F8C0021C4B036008234360022359
:10063C00836000238361C361036200F020F930BB47
:10064C00182300221146D4F8C00200F06BFF582387
:10065C0000228021D4F8C00200F064FFC0230022E5
:10066C008121D4F8C00200F05DFF4FF488730022A2
:10067C000121D4F8C00200F055FF4FF48073002222
:10068C008221D4F8C00200F04DFF002010BDFFF70E
:10069C009BFDD5E750100020005C004008B5D0F859
:1006AC00C00200F072F9FFF73FFF08BD10B5144609
:1006BC001A462346D0F8C00200F001FEFFF734FFC3
:1006CC0010BD08B5D0F8C00200F035FEFFF72CFFC6
:1006DC0008BD08B5D0F8C00200F0ADFEFFF724FF4E
:1006EC0008BD08B5D0F8C00200F0E1FEFFF71CFF12
:1006FC0008BDD0F8C03211F0800F08D101F07F0195
:10070C0001EB810103EBC10191F86A01704701F023
:10071C007F01013101EB810103EBC1018878704746
:10072C0008B5D0F8C00200F0CDFCFFF7FDFE08BD07
:10073C0008B5D0F8C00200F05BFEFFF7F5FE08BD6F
:10074C0008B5D0F8C00200F028FEFFF7EDFE08BD9A
:10075C0008B5D0F8C00200F042FE08BD0048704752
:10076C00980100207047704770B512F4804F43D049
:10077C000468B4F850309BB20D7803EBC503023318
:10078C0004EB4303B3F80044C4F309048B69A3429C
:10079C0028D31B1B8B618B697BB9066836F8253017
:1007AC009BB223F4804323F0700383F4005343F48F
:1007BC00004343F0800326F8253012F0400F0ED092
:1007CC0002680D7832F825309BB223F4E04323F015
:1007DC00700343F4004343F0C00322F8253024B9DE
:1007EC00204670BD00238B61D5E723460A894969F1
:1007FC00006801F0D3FDF3E70468B4F850309BB205
:10080C000D7803EBC503063304EB4303B3F8004444
:10081C00C4F309048B69A3422ED31B1B8B618B6918
:10082C007BB9066836F825309BB223F4804323F05D
:10083C00700383F4005343F4004343F0800326F821
:10084C00253012F0400F0ED102680D7832F82530A9
:10085C009BB223F4E04323F0700343F4004343F0D2
:10086C00C00322F82530002CBAD023464A894969A6
:10087C00006801F093FDB3E700238B61CFE7F0B57F
:10088C0087B000287FD0044690F8A932DBB103234F
:10089C0084F8A932206800F071FE254655F8107BCB
:1008AC006E460FCD0FC62B683360231D0ECB38461A
:1008BC0000F054FE054658B1022384F8A9320125F4
:1008CC00284607B0F0BD80F8A832FFF737FEDEE708
:1008DC000021206800F05CFE2B4619E05A1C02EB4C
:1008EC00820104EBC1010120487002EB820104F883
:1008FC00313003EB830104EBC101CB8602EB8206A2
:10090C0004EBC6060020F0708863C8630864D3B299
:10091C0061688B42E2D316E005EB850304EBC3035D
:10092C00002283F8692183F8685183F86B21C3F89E
:10093C007821C3F87C2105EB850304EBC303C3F8D2
:10094C0080210135EDB2A942E6D8254655F8107B39
:10095C006E460FCD0FC62B683360231D0ECB384669
:10096C0000F018FE054620B1022384F8A9320125B7
:10097C00A6E7002384F82430012384F8A9322068E8
:10098C0001F022F99CE701259AE738B590F8A832D6
:10099C00012B11D00446012580F8A852006800F004
:1009AC00E4FD29462046FFF7DEFE206801F00AF937
:1009BC00002084F8A80238BD0220FCE770B505467B
:1009CC000C46164612F0400F00F0BA800268B2F8DE
:1009DC0050309BB2097803EBC103023302EB4303A3
:1009EC00B3F80024C2F30902A36993422BD99B1AD2
:1009FC00A361A36953B316F4804F0DD0286830F867
:100A0C0021309BB223F4E04323F0700343F44043C2
:100A1C0043F0800320F8213094F82430012B2BD0A4
:100A2C002A68217832F821309BB223F4E04323F07A
:100A3C00400383F0300343F4004343F0800322F877
:100A4C002130002070BD0023A361D2E72846FFF7B8
:100A5C00A9FD16F4804FE3D02A68217832F82130B2
:100A6C009BB223F4E04323F0700343F4404343F080
:100A7C00800322F82130D3E7636913446361E3698F
:100A8C001344E361216A236999421FD3C91A216275
:100A9C006278002A3FD12A68B2F8501089B20A4411
:100AAC00217802EB0112EBB9B2F8041489B221F4EB
:100ABC00F84189B2A2F80414B2F804146FEA414167
:100ACC006FEA514189B2A2F8041426E021B900233F
:100ADC0084F824301346DBE7002384F824302362A7
:100AEC000B46D5E73E2B09D8590813F0010F00D05F
:100AFC000131890289B2A2F804140EE0590913F0ED
:100B0C001F0F00D101396FEAC1616FEA514189B2FF
:100B1C00A2F8041401E0012A06D09BB22289616973
:100B2C00286801F059F87BE72A68B2F8501089B2AE
:100B3C000A44217802EB011299B2A2F80414ECE7F2
:100B4C000268B2F850309BB2097803EBC10306334C
:100B5C0002EB4303B3F80024C2F30902A3699342E6
:100B6C0044D39B1AA361A369002B42D016F4804F87
:100B7C000DD1286830F821309BB223F4E04323F0E8
:100B8C00700343F4404343F0800320F8213094F881
:100B9C002430012B7FF444AF636913446361E36930
:100BAC001344E361216A2369994239D3C91A21623A
:100BBC002A686178002958D1B2F8501089B20A44D9
:100BCC00217802EB0112BBBBB2F80C1489B221F4F0
:100BDC00F84189B2A2F80C14B2F80C146FEA414136
:100BEC006FEA514189B2A2F80C1440E00023A361D2
:100BFC00B9E72846FFF7D6FC16F4804F7FF410AF08
:100C0C002A68217832F821309BB223F4E04323F098
:100C1C00700343F4404343F0800322F82130FFE695
:100C2C0021B9002384F824301346C1E70023236242
:100C3C0084F824300B46BBE73E2B09D8590813F037
:100C4C00010F00D00131890289B2A2F80C140EE018
:100C5C00590913F01F0F00D101396FEAC1616FEA16
:100C6C00514189B2A2F80C1401E0012906D09BB2C3
:100C7C0062896169286800F0AFFFD1E6B2F85010C4
:100C8C0089B20A44217802EB011299B2A2F80C1431
:100C9C00EDE72DE9F04105462868B0F8443013F42F
:100CAC00004F00F00C82B0F84440A3B214F00F04D3
:100CBC0040F0D48013F0100F5DD003889AB213F477
:100CCC00006F40F08F8012F4004FE5D0038823F0C2
:100CDC0070031B051B0D43F0800303802868B0F8DC
:100CEC0050309BB295F8682103EBC203063300EB3E
:100CFC004303B3F80034C3F30903C5F884318BB153
:100D0C00D5F87C1171B1B5F86E2101F047FBD5F81F
:100D1C008421D5F87C311344C5F87C310021284658
:100D2C00FFF734FC2A68B2F850309BB21344D5F864
:100D3C007821002A79D1B3F80C2492B222F4F8422B
:100D4C0092B2A3F80C24B3F80C246FEA42426FEA77
:100D5C00524292B2A3F80C242A6813889BB223F453
:100D6C00804323F0700383F4405343F4004343F077
:100D7C008003138090E703889BB223F4E14323F0B4
:100D8C0070036FEA43436FEA53439BB203802A68B4
:100D9C00B2F850309BB295F8281003EBC103023324
:100DAC0002EB4303B3F80034C3F309036B64EA6B3F
:100DBC001344EB6300212846FFF7F4FB95F824302D
:100DCC00002B3FF469AF2B6C002B7FF465AF95F8CB
:100DDC0024302A6843F08003A2F84C30002385F8B5
:100DEC00243059E7B0F850309BB295F8682103EBEA
:100DFC00C203063300EB4303B3F80034C3F3090317
:100E0C00C5F88431B5F86E2105F52C7101F0C6FAE0
:100E1C002A68138823F070031B051B0D43F0800315
:100E2C0013802846FFF7AAFB36E73E2A09D851085B
:100E3C0012F0010F00D00131890289B2A3F80C1411
:100E4C008AE7510912F01F0F00D101396FEAC16214
:100E5C006FEA524292B2A3F80C247DE730F82430AA
:100E6C009EB213F4004F4CD116F0800F3FF414AF28
:100E7C00621C02EB820105EBC101286830F82430BA
:100E8C009BB223F4E14323F070036FEA43436FEA10
:100E9C0053439BB220F82430CB78022B00F0F28025
:100EAC002868B0F850309BB2621C02EB820215F835
:100EBC00322003EBC203023300EB4303B3F80034DC
:100ECC00C3F3090304EB840205EBC202126C9A42D1
:100EDC0040F2E18004EB840605EBC606D21A3264BC
:100EEC0004EB840205EBC202126C002A40F0DA809B
:100EFC00013404EB840415F834102846FFF752FB38
:100F0C00CAE630F8243023F070031B051B0D43F0A8
:100F1C00800320F8243004EB8401C90001F5B4717E
:100F2C0005EB010804EB840305EBC30393F8743160
:100F3C00002B42D12868B0F850309BB204EB8402ED
:100F4C0005EBC20292F8682103EBC203063300EBF7
:100F5C004303B3F80074C7F3090717BB04EB84030E
:100F6C0005EBC303D3F884213A44C3F88421D3F8A6
:100F7C007C213A44C3F87C21D3F880313BB104EB9B
:100F8C00840305EBC303D3F878319F4275D204EB8D
:100F9C00840305EBC30393F868112846FFF7F6FAB0
:100FAC0062E704EB840105EBC1013B46B1F86E210D
:100FBC00D1F87C1101F0F2F9D0E704EB840305EBD6
:100FCC00C30393F86B31022B35D0296804EB8402F0
:100FDC0005EBC20292F8680131F820309BB223F481
:100FEC00E04323F0700343F4004343F0C00321F8C3
:100FFC002030286892F8682130F8223013F4804FA2
:10100C0020D0B0F850309BB203EBC203023300EB9C
:10101C004303B3F80074C7F30907002F9ED004EB09
:10102C00840105EBC1013B46B1F87021D1F87C116C
:10103C0001F0B4F992E7324641462846FFF794FB9B
:10104C0007468BE7B0F850309BB203EBC203063374
:10105C0000EB4303B3F80074C7F30907002F3FF408
:10106C007DAF04EB840105EBC1013B46B1F8722165
:10107C00D1F87C1101F092F970E74146286800F034
:10108C00BEFDF1E616F4807F3FF40AAF32462846E7
:10109C00FFF794FC00E604EB840205EBC202002689
:1010AC0016641DE704EB840205EBC202D66B1E44EA
:1010BC00D663546C2344536400F0A1FDECE500208E
:1010CC00BDE8F08190F8A832012B0DD010B5044684
:1010DC00012380F8A83280F82410006800F06CFD21
:1010EC00002084F8A80210BD0220704710B584B00F
:1010FC000446006800F06AFD10F4004F32D12068FD
:10110C0000F064FD10F4806F30D1206800F05EFDBB
:10111C0010F4804F08D02268B2F844309BB223F40C
:10112C0080439BB2A2F84430206800F04FFD10F4CD
:10113C00005F08D02268B2F844309BB223F400530D
:10114C009BB2A2F84430206800F040FD10F4805FA0
:10115C001DD1206800F03AFD10F4006F00F08B8078
:10116C0000233DE02046FFF794FDC8E72268B2F863
:10117C0044309BB223F480639BB2A2F844302046E7
:10118C00FFF721FA00212046FFF79CFFBDE72268FC
:10119C00B2F840309BB223F004039BB2A2F840306B
:1011AC002268B2F840309BB223F008039BB2A2F83D
:1011BC0040302046FFF72AFA2268B2F844309BB23E
:1011CC0023F480539BB2A2F84430C2E7226832F871
:1011DC00231004AA02EB430222F8101C0133DBB2E9
:1011EC00072BF3D92268B2F840309BB243F00103CD
:1011FC00A2F840302268B2F840309BB223F00103D1
:10120C009BB2A2F840302368B3F8442012F4806FEC
:10121C00F9D0B3F8442092B222F4806292B2A3F8CF
:10122C004420002309E0226804A901EB430131F8B2
:10123C00101C22F823100133DBB2072BF3D92268E0
:10124C00B2F840309BB243F00803A2F84030226859
:10125C00B2F844309BB223F400639BB2A2F8443042
:10126C002268B2F840309BB243F00403A2F840303D
:10127C002046FFF7BBF9206800F0A8FC10F4007FB3
:10128C0010D1206800F0A2FC10F4807F08D02268F6
:10129C00B2F844309BB223F480739BB2A2F8443072
:1012AC0004B010BD2268B2F844309BB223F4007332
:1012BC009BB2A2F844302046FFF77FF9E1E770B506
:1012CC0005460C4611F0800F26D101F0070000EB0B
:1012DC008001C90001F5B476A91900EB800005EB7B
:1012EC00C000002680F8696104F007040C700A61E4
:1012FC00CB704A7802B1CC81022B17D095F8A8326A
:10130C00012B16D0012385F8A832286800F055F976
:10131C00002085F8A80270BD01F00700013000EB39
:10132C00800105EBC10101264E70DDE700230B7136
:10133C00E4E70220EFE710B504460B4611F0800FEE
:10134C001FD101F0070202EB8201C90001F5B47153
:10135C00014402EB820200EBC202002082F8690118
:10136C0003F007030B7094F8A832012B13D0012360
:10137C0084F8A832206800F0BFFA002084F8A80294
:10138C0010BD01F00702013202EB820100EBC1013A
:10139C0001204870E4E70220F2E738B501F00704B9
:1013AC0004EB8401C90001F5B471014404EB84051C
:1013BC0000EBC505C5F87C21C5F880310023C5F8C4
:1013CC00843185F8693185F8684124B9006800F0EA
:1013DC0016FC002038BD006800F011FCF9E701F0A4
:1013EC00070101EB810100EBC101D1F884017047C9
:1013FC0070B501F007056C1C04EB840100EBC10116
:10140C0005EB850600EBC606F2633364012286F811
:10141C004C20B364002373644A7004EB840400F81A
:10142C00345025B9006800F0EAFB002070BD00685C
:10143C0000F0E5FBF9E738B501F007054268954285
:10144C0031D804460B4611F0800F1ED101EB8101FF
:10145C00C90001F5B471014403EB830300EBC30332
:10146C00002283F8692101238B700D7094F8A83247
:10147C00012B1AD0012384F8A832206800F026FB37
:10148C005DB1002084F8A80238BD6B1C03EB83010E
:10149C0000EBC10101224A70E5E704F52C712068CC
:1014AC0000F098FBEDE70120EEE70220ECE70B469D
:1014BC0001F00F014268914230D810B5044613F088
:1014CC00800F21D103F0070202EB8201C90001F564
:1014DC00B471014402EB820200EBC202002082F8DC
:1014EC00690100228A7003F007030B7094F8A8328C
:1014FC00012B15D0012384F8A832206800F00BFBD7
:10150C00002084F8A80210BD03F00702013202EBA0
:10151C00820100EBC10101204870E2E70120704715
:10152C000220F0E711F0800F0BD001F00701013120
:10153C0001EB810100EBC10152B90A73CB80002091
:10154C00704701EB8101C90001F5B4710144F3E767
:10155C0001220A730B811B0C4B81F0E784B001A8AC
:10156C0080E80E00002004B0704703460020A3F86A
:10157C0044004FF43F42A3F840207047B0F840308D
:10158C0023F47C535B045B0CA0F8403000207047C4
:10159C000020704784B010B4044602A880E80E0006
:1015AC000123A4F840300020A4F84000A4F8440023
:1015BC00A4F8500010BC04B0704730B403460C784B
:1015CC0030F8242092B222F4EC4222F0700292B253
:1015DC00C87803285AD8DFE800F04E550251002095
:1015EC0048F280052A4323F824200C7833F8242071
:1015FC0092B222F4E04222F0700222432A4323F8F2
:10160C0024200A7B002A40F0B6804A78002A4ED06B
:10161C00B3F8502092B21A440C7802EB0412CC8826
:10162C0064086400A2F800440C7833F8242012F00B
:10163C00400F0CD033F8242092B222F4E04222F076
:10164C00700242F4004242F0C00223F82420CA780F
:10165C00012A1DD0097833F8212092B222F4E042FD
:10166C0022F0400282F0200242F4004242F080025A
:10167C0023F8212064E042F40072B1E742F4C06226
:10168C000020ADE742F480620020A9E70120A7E723
:10169C00097833F8212092B222F4E04222F0400281
:1016AC0042F4004242F0800223F8212048E0B3F8D3
:1016BC00502092B21A440C7802EB0412CC886408C5
:1016CC006400A2F80844B3F8502092B21A440C7883
:1016DC0002EB04120C69ACBBB2F80C44A4B224F4B7
:1016EC00F844A4B2A2F80C44B2F80C446FEA444497
:1016FC006FEA5444A4B2A2F80C440C7833F82420BA
:10170C0012F4804F0CD033F8242092B222F4E04231
:10171C0022F0700242F4404242F0800223F824206E
:10172C00097833F8212092B222F4804222F0700220
:10173C0082F4405242F4004242F0800223F821200D
:10174C0030BC70473E2C09D8650814F0010F00D04E
:10175C000135AD02ADB2A2F80C54CEE7650914F018
:10176C001F0F00D1013D6FEAC5646FEA5444A4B267
:10177C00A2F80C44C1E70C7833F8242092B222F47E
:10178C00E04222F0700242F4014242F0800223F85F
:10179C002420B3F8502092B21A440C7802EB0412B5
:1017AC000C8964086400A2F80044B3F8502092B28B
:1017BC001A440C7802EB04124C8964086400A2F8F9
:1017CC0008444A78002A40D10C7833F8242012F4CB
:1017DC00804F0CD033F8242092B222F4E04222F055
:1017EC00700242F4404242F0800223F824200C782C
:1017FC0033F8242012F0400F0CD033F8242092B28E
:10180C0022F4E04222F0700242F4004242F0C002A4
:10181C0023F824200D7833F8252092B222F480424C
:10182C0022F0700282F4405248F28004224323F8E2
:10183C002520097833F8212092B222F4E04222F0DC
:10184C004002224323F821207AE70C7833F8242035
:10185C0012F4804F0CD033F8242092B222F4E042E0
:10186C0022F0700242F4404242F0800223F824201D
:10187C000C7833F8242012F0400F0CD033F82420CD
:10188C0092B222F4E04222F0700242F4004242F0A2
:10189C00C00223F82420CA78012A1ED00C7833F811
:1018AC00242092B222F4E04222F0400282F0200284
:1018BC0042F4004242F0800223F82420097833F8E5
:1018CC00212092B222F4804222F0700242F40042B3
:1018DC0042F0800223F8212032E70C7833F82420E0
:1018EC0092B222F4E04222F0400242F4004242F072
:1018FC00800223F82420E1E70B7B002B46D14B78A8
:10190C0013B30A7830F8223013F0400F0CD030F8B3
:10191C0022309BB223F4E04323F0700343F40043E2
:10192C0043F0C00320F822300A7830F822309BB202
:10193C0023F4E04323F0400343F4004343F08003DB
:10194C0020F82230002070470A7830F8223013F447
:10195C00804F0CD030F822309BB223F4E04323F0BC
:10196C00700343F4404343F0800320F822300A789C
:10197C0030F822309BB223F4804323F0700343F4FD
:10198C00004343F0800320F82230DBE710B44B789F
:10199C00002B4ED10A7830F8223013F4804F0CD043
:1019AC0030F822309BB223F4E04323F0700343F46D
:1019BC00404343F0800320F822300A7830F822307C
:1019CC0013F0400F0CD030F822309BB223F4E043DC
:1019DC0023F0700343F4004343F0C00320F822309B
:1019EC000A7830F822309BB223F4E04323F07003E2
:1019FC0043F4004343F0C00320F822300B7830F856
:101A0C00232092B222F4804222F0700248F2800429
:101A1C00224320F823200A7830F822309BB223F49A
:101A2C00E04323F04003234320F82230002010BC75
:101A3C0070470A7830F8223013F4804F0CD030F80D
:101A4C0022309BB223F4E04323F0700343F4404371
:101A5C0043F0800320F822300A7830F8223013F05B
:101A6C00400F0CD030F822309BB223F4E04323F02B
:101A7C00700343F4004343F0C00320F822300A788B
:101A8C0030F822309BB223F4E04323F0700343F48C
:101A9C00404343F0800320F822300B7830F82320A9
:101AAC0092B222F4E04222F0400248F28004224337
:101ABC0020F823200A7830F822309BB223F480439C
:101ACC0023F07003234320F82230AFE74B788BB11F
:101ADC000A7830F822309BB223F4E04323F0400321
:101AEC0083F0100343F4004343F0800320F82230CA
:101AFC00002070470A7830F822309BB223F48043E0
:101B0C0023F0700383F4805343F4004343F08003C9
:101B1C0020F82230ECE70B7B002B4BD14B7833B306
:101B2C000A7830F8223013F0400F0CD030F8223005
:101B3C009BB223F4E04323F0700343F4004343F0DF
:101B4C00C00320F82230CB78012B33D00A7830F840
:101B5C0022309BB223F4E04323F0400383F02003B4
:101B6C0043F4004343F0800320F8223022E00A784B
:101B7C0030F8223013F4804F0CD030F822309BB266
:101B8C0023F4E04323F0700343F4404343F0800319
:101B9C0020F822300A7830F822309BB223F48043AC
:101BAC0023F0700383F4405343F4004343F0800369
:101BBC0020F822300020704711B98023A0F84C3057
:101BCC00002070470020704700207047B0F8440098
:101BDC0080B270470020704710B45C1C640800EBA6
:101BEC00420202F5806244B10B78487843EA002344
:101BFC0022F8043B0231013CF5E710BC704770B58C
:101C0C0005460C464A78012A37D00B7B002B40F056
:101C1C00A0828B690A69934240F27E829B1A8B6187
:101C2C00B5F850309BB22B44217803EB0113002AFA
:101C3C0040F07682B3F80C2492B222F4F84292B2BD
:101C4C00A3F80C24B3F80C246FEA42426FEA524218
:101C5C0092B2A3F80C24227835F822309BB223F4EC
:101C6C00804323F0700383F4405343F4004343F068
:101C7C00800325F82230002070BD8E6909698E42E0
:101C8C0000D90E46237B3BB3E378022B46D0217858
:101C9C0035F8213013F0400F00F0EE81002A40F0AF
:101CAC00CA81B5F850309BB22B4403EB0113002EC4
:101CBC0040F0A881B3F80C2492B222F4F84292B20C
:101CCC00A3F80C24B3F80C246FEA42426FEA524298
:101CDC0092B2A3F80C24B7E1B6B23346E28861693C
:101CEC002846FFF779FFB5F850309BB22B44227889
:101CFC0003EB0213A3F80464227835F822309BB26C
:101D0C0023F4E04323F0400383F0300343F4004317
:101D1C0043F0800325F822300020ADE7236A994276
:101D2C0080F05281227835F822309BB223F4E043C4
:101D3C0023F0700343F4014343F0800325F8223071
:101D4C00236A9B1B2362237835F8232012F0400F63
:101D5C0000F09D8062788ABBB5F8502092B22A447C
:101D6C0002EB03138EB9B3F80C2492B222F4F842AE
:101D7C0092B2A3F80C24B3F80C246FEA42426FEA37
:101D8C00524292B2A3F80C241AE03E2E09D87208E3
:101D9C0016F0010F00D00132920292B2A3F80C247B
:101DAC000EE0720916F01F0F00D1013A6FEAC26201
:101DBC006FEA524292B2A3F80C2401E0012A2BD014
:101DCC00B3B2628961692846FFF706FF6369334441
:101DDC006361236A2269934228D99B1B236263782F
:101DEC00002B40D1B5F850309BB22B44227803EB3A
:101DFC000213FEB9B3F8042492B222F4F84292B260
:101E0C00A3F80424B3F804246FEA42426FEA524266
:101E1C0092B2A3F8042428E0B5F8502092B22A44D8
:101E2C0002EB0313B2B2A3F80C24C9E7002222621E
:101E3C001E46D4E73E2E09D8720816F0010F00D0CA
:101E4C000132920292B2A3F804240EE0720916F049
:101E5C001F0F00D1013A6FEAC2626FEA524292B28E
:101E6C00A3F8042401E0012B06D0B3B222896169E6
:101E7C002846FFF7B1FE3FE7B5F850309BB22B4434
:101E8C00227803EB0213B2B2A3F80424EDE76278D4
:101E9C008ABBB5F8502092B22A4402EB03138EB9D8
:101EAC00B3F8042492B222F4F84292B2A3F80424B8
:101EBC00B3F804246FEA42426FEA524292B2A3F89A
:101ECC0004241AE03E2E09D8720816F0010F00D037
:101EDC000132920292B2A3F804240EE0720916F0B9
:101EEC001F0F00D1013A6FEAC2626FEA524292B2FE
:101EFC00A3F8042401E0012A2BD0B3B22289616932
:101F0C002846FFF769FE636933446361236A2269DB
:101F1C00934228D99B1B23626378002B40D1B5F8E0
:101F2C0050309BB22B44227803EB0213FEB9B3F86A
:101F3C000C2492B222F4F84292B2A3F80C24B3F817
:101F4C000C246FEA42426FEA524292B2A3F80C247C
:101F5C0028E0B5F8502092B22A4402EB0313B2B237
:101F6C00A3F80424C9E7002222621E46D4E73E2EC1
:101F7C0009D8720816F0010F00D00132920292B209
:101F8C00A3F80C240EE0720916F01F0F00D1013AD1
:101F9C006FEAC2626FEA524292B2A3F80C2401E0DB
:101FAC00012B06D0B3B2628961692846FFF714FE93
:101FBC00A2E6B5F850309BB22B44227803EB021307
:101FCC00B2B2A3F80C24EDE7217835F8212092B2B7
:101FDC0022F4E24222F0700242F4004242F080020B
:101FEC0025F82120B5F8502092B22A44217802EB32
:101FFC0001129BB2A2F80434228961692846FFF7CA
:10200C00EBFD79E63E2E09D8720816F0010F00D0D0
:10201C000132920292B2A3F80C2415E0720916F068
:10202C001F0F00D1013A6FEAC2626FEA524292B2BC
:10203C00A3F80C2408E0B5F850309BB22B4403EB0A
:10204C000113B2B2A3F80C246289B3B261692846B9
:10205C00FFF7C2FD6378002B4CD1227835F8223083
:10206C009BB223F4E04323F0700343F4004343F0AA
:10207C00C00325F822303FE68ABBB5F850309BB23E
:10208C002B4403EB01138EB9B3F8042492B222F45F
:10209C00F84292B2A3F80424B3F804246FEA424243
:1020AC006FEA524292B2A3F8042421E03E2E09D8E2
:1020BC00720816F0010F00D00132920292B2A3F80E
:1020CC00042415E0720916F01F0F00D1013A6FEAD3
:1020DC00C2626FEA524292B2A3F8042408E0B5F847
:1020EC0050309BB22B4403EB0113B2B2A3F804247F
:1020FC002289AAE7012B7FF4FFAD227835F8223034
:10210C009BB223F4E04323F0700343F4404343F0C9
:10211C00800325F82230EFE500228A611A467FE51C
:10212C003E2A09D8510812F0010F00D00131890262
:10213C0089B2A3F80C148EE5510912F01F0F00D1CF
:10214C0001396FEAC1616FEA514189B2A3F80C14ED
:10215C0081E5CB78022B45D0012B40F01D8189699C
:10216C002369994240F2D480C91AA161D2B9B5F859
:10217C00502092B22A44217802EB0112002B40F03D
:10218C00CB80B2F8041489B221F4F84189B2A2F8D8
:10219C000414B2F804146FEA41416FEA514189B258
:1021AC00A2F804146278002A40F0E880B5F85020B8
:1021BC0092B22A44217802EB0112002B40F0C58028
:1021CC00B2F80C349BB223F4F8439BB2A2F80C3453
:1021DC00B2F80C346FEA43436FEA53439BB2A2F854
:1021EC000C3438E5CAB9B0F850309BB203440A78C5
:1021FC0003EB02130A6972BBB3F8042492B222F403
:10220C00F84292B2A3F80424B3F804246FEA4242D1
:10221C006FEA524292B2A3F804246378002B4CD19B
:10222C00B5F850309BB22B44227803EB0213226991
:10223C0052BBB3F80C2492B222F4F84292B2A3F837
:10224C000C24B3F80C246FEA42426FEA524292B269
:10225C00A3F80C2433E03E2A09D8510812F0010FE0
:10226C0000D001318A0292B2A3F80424D5E75109B7
:10227C0012F01F0F00D101396FEAC1626FEA5242AE
:10228C0092B2A3F80424C8E73E2A09D8510812F0E8
:10229C00010F00D001318A0292B2A3F80C240EE097
:1022AC00510912F01F0F00D101396FEAC1626FEAB8
:1022BC00524292B2A3F80C2401E0012B1DD0E36929
:1022CC00002B3FF4C8AC227835F8221044F24003BE
:1022DC0003EA01008B4302D000287FF4BCAC35F834
:1022EC0022309BB223F4E04323F0700343F4004309
:1022FC0043F0C00325F82230ADE4B5F850309BB262
:10230C002B44227803EB0213228AA3F80C24D6E781
:10231C000023A3610B4629E73E2B09D8590813F07B
:10232C00010F00D00131890289B2A2F8041439E7F7
:10233C00590913F01F0F00D101396FEAC1616FEA1F
:10234C00514189B2A2F804142CE73E2B09D8590844
:10235C0013F0010F00D001318B029BB2A2F80C34A8
:10236C0079E4590913F01F0F00D101396FEAC163E9
:10237C006FEA53439BB2A2F80C346CE4012A7FF44D
:10238C006AACB5F8502092B22A44217802EB0112C3
:10239C009BB2A2F80C345EE401206DE410B45C082E
:1023AC0000EB420000F5806044B130F8042B0A7059
:1023BC00C2F307224A700231013CF5E713F0010F1A
:1023CC0001D003880B7010BC7047000010B5044698
:1023DC000E4B18784FF47A73B3FBF0F30C4A106879
:1023EC00B0FBF3F000F03AFD68B90F2C01D90120D5
:1023FC000AE0002221464FF0FF3000F0EDFC054BC7
:10240C001C60002000E0012010BD00BF6000002017
:10241C00680000206400002008B5074A136843F0E8
:10242C0010031360032000F0C5FC0020FFF7CEFF63
:10243C00FDF72CFF002008BD00200240034A116864
:10244C00034B1B780B441360704700BF3C130020F8
:10245C0060000020014B1868704700BF3C1300203F
:10246C0082B0084B1B68084AA2FB03235B0A00FBE3
:10247C0003F3019300BF019B5A1E0192002BF9D16B
:10248C0002B0704768000020D34D6210002800F0A5
:10249C00F18170B582B00446036813F0010F2CD0A3
:1024AC00AA4B5B6803F00C03042B1DD0A74B5B6895
:1024BC0003F00C03082B12D06368B3F5803F41D0B6
:1024CC00002B55D103F1804303F504331A6822F431
:1024DC0080321A601A6822F480221A6037E09B4B13
:1024EC005B6813F4803FE7D0984B1B6813F4003FF4
:1024FC0003D06368002B00F0BF81236813F0020F38
:10250C0075D0924B5B6813F00C0F5FD08F4B5B68F0
:10251C0003F00C03082B54D02369002B00F08980A6
:10252C008B4B01221A60FFF795FF0546874B1B6802
:10253C0013F0020F74D1FFF78DFF401B0228F5D961
:10254C0003209EE1814A136843F48033136063686F
:10255C0043B3FFF77FFF05467C4B1B6813F4003F2A
:10256C00CBD1FFF777FF401B6428F5D9032088E116
:10257C00B3F5A02F09D0754B1A6822F480321A607B
:10258C001A6822F480221A60E1E703F18043A3F574
:10259C003C331A6842F480221A601A6842F4803282
:1025AC001A60D4E7FFF756FF0546684B1B6813F417
:1025BC00003FA2D0FFF74EFF401B6428F5D9032043
:1025CC005FE1624B5B6813F4803FA5D15F4B1B68E6
:1025DC0013F0020F03D02369012B40F04F815B4AAB
:1025EC00136823F0F803616943EAC103136023689D
:1025FC0013F0080F32D0A369002B45D0554B0122A4
:10260C001A60FFF727FF0546504B5B6A13F0020F69
:10261C0021D1FFF71FFF401B0228F5D9032030E121
:10262C004A4A136823F0F803616943EAC103136053
:10263C00DDE7474B00221A60FFF70CFF0546434BC2
:10264C001B6813F0020FD2D0FFF704FF401B0228C7
:10265C00F5D9032015E10120FFF702FF236813F0E1
:10266C00040F00F09780394BDB6913F0805F1DD1AC
:10267C00364BDA6942F08052DA61DB6903F0805341
:10268C000193019B012512E0324B00221A60FFF7E7
:10269C00E1FE05462D4B5B6A13F0020FDED0FFF70F
:1026AC00D9FE401B0228F5D90320EAE000252A4B6D
:1026BC001B6813F4807F11D0E368012B22D0002B10
:1026CC0038D103F1804303F504331A6A22F0010276
:1026DC001A621A6A22F004021A6218E01E4A13687F
:1026EC0043F480731360FFF7B5FE06461A4B1B6864
:1026FC0013F4807FE0D1FFF7ADFE801B6428F5D981
:10270C000320BEE0114A136A43F001031362E3682D
:10271C0073B3FFF79FFE06460C4B1B6A13F0020FB8
:10272C0037D1FFF797FE801B41F288339842F3D9DB
:10273C000320A6E0052B11D0044B1A6A22F00102EB
:10274C001A621A6A22F004021A62E0E700100240D0
:10275C000000424280044242007000404D4B1A6A15
:10276C0042F004021A621A6A42F001021A62CEE7BF
:10277C00FFF770FE0646474B1B6A13F0020F08D09A
:10278C00FFF768FE801B41F288339842F3D903208F
:10279C0077E0E5B9E369002B72D03E4A526802F04B
:1027AC000C02082A56D0022B17D03B4B00221A6081
:1027BC00FFF750FE0446374B1B6813F0007F47D0E1
:1027CC00FFF748FE001B0228F5D9032059E0314AD7
:1027DC00D36923F08053D361DCE72F4B00221A60BE
:1027EC00FFF738FE05462B4B1B6813F0007F06D015
:1027FC00FFF730FE401B0228F5D9032041E0236A85
:10280C00B3F5803F1AD023494B6823F47413226A22
:10281C00606A024313434B601F4B01221A60FFF79F
:10282C0019FE04461B4B1B6813F0007F0ED1FFF7FB
:10283C0011FE001B0228F5D9032022E0154A53682B
:10284C0023F40033A1680B435360DCE7002018E04D
:10285C00002016E0012B16D00E4B5B6803F4803180
:10286C00226A914211D103F47013626A93420ED121
:10287C00002006E001207047012002E0012000E06A
:10288C00002002B070BD0120FBE70120F9E7012018
:10289C00F7E700BF001002406000424286B0164BC2
:1028AC000FCB0DF1180C0CE90F0040F20123ADF821
:1028BC000430124B5B6803F00C02082A02D010485B
:1028CC0006B07047C3F38342624412F8102C13F421
:1028DC00803F0CD0094B5B68C3F34043634413F84F
:1028EC00143C074800FB02F0B0FBF3F0E8E70548A6
:1028FC0000FB02F0E4E700BF743C0008001002404B
:10290C0000127A0000093D00002800F0A08070B58C
:10291C000D460446524B1B6803F007038B420BD247
:10292C004F4A136823F007030B431360136803F03B
:10293C0007038B4240F08D80236813F0020F17D0F1
:10294C0013F0040F04D0474A536843F4E063536018
:10295C00236813F0080F04D0424A536843F46053C1
:10296C005360404A536823F0F003A1680B43536053
:10297C00236813F0010F31D06368012B20D0022B98
:10298C0025D0384A126812F0020F64D035494A68D3
:10299C0022F0030213434B60FFF75CFD0646314BFC
:1029AC005B6803F00C036268B3EB820F16D0FFF781
:1029BC0051FD801B41F288339842F0D9032045E049
:1029CC00284A126812F4003FE0D101203EE0254A6B
:1029DC00126812F0007FD9D1012037E0204B1B6820
:1029EC0003F00703AB420AD91D4A136823F007030F
:1029FC002B431360136803F00703AB422DD12368FC
:102A0C0013F0040F06D0174A536823F4E063E1680F
:102A1C000B435360236813F0080F07D0114A536817
:102A2C0023F46053216943EAC1035360FFF736FF77
:102A3C000C4B5B68C3F303130B4AD35CD8400B4BB2
:102A4C0018600B4B1868FFF7C1FC002070BD01200B
:102A5C0070470120FAE70120F8E70120F6E700BFF4
:102A6C000020024000100240883C00086800002052
:102A7C006400002070B582B00446036813F0010FA7
:102A8C0034D03E4BDB6913F0805F47D13B4BDA69A6
:102A9C0042F08052DA61DB6903F080530193019BB1
:102AAC000125374B1B6813F4807F39D0334B1B6ADD
:102ABC0013F4407311D0626802F440729A420CD045
:102ACC002E4A136A23F440702E4901260E6000260C
:102ADC000E60106213F0010F36D1284A136A23F4EA
:102AEC00407361680B431362002D3ED1236813F0D1
:102AFC00020F06D0214A536823F44043A1680B43CC
:102B0C005360236813F0100F34D01C4A536823F41D
:102B1C008003E1680B43536000202CE00025C0E7E4
:102B2C00174A136843F480731360FFF793FC06464F
:102B3C00134B1B6813F4807FB8D1FFF78BFC801B01
:102B4C006428F5D9032016E0FFF784FC06460B4BEE
:102B5C001B6A13F0020FC0D1FFF77CFC801B41F203
:102B6C0088339842F3D9032005E0D36923F08053CE
:102B7C00D361BBE7002002B070BD00BF0010024063
:102B8C000070004040044242F0B482B000252C4654
:102B9C00A3E07F4FBB4210D007D97E4FBB420CD075
:102BAC0007F58037BB4208D013E0A7F58017BB426E
:102BBC0003D007F57027BB4207D18B68002B58D088
:102BCC00012B51D04261082503E0A7F58017BB42C9
:102BDC00F3D0FF2E4FD88446FF2E4FD8A200DCF83E
:102BEC0000300F27974023EA070305FA02F213433C
:102BFC00CCF800304B6813F0805F6DD0664B9A694F
:102C0C0042F001029A619B6903F001030193019B5D
:102C1C00A208971C614B53F8273004F00307BF0040
:102C2C004FF00F0C0CFA07FC23EA0C0C5C4B98428F
:102C3C002AD003F58063984200F08A8003F5806304
:102C4C00984200F0878003F5806398421AD00423E1
:102C5C001BE0CD68BDE7CD680435BAE7CD68083513
:102C6C00B7E7CD680C35B4E702610825B1E700255C
:102C7C00AFE70425ADE700F1040CADE7A4F10802C1
:102C8C009200ACE7032300E00023BB4043EA0C03B3
:102C9C000232424F47F822304B6813F4803F5BD02E
:102CAC00404A1368334313604B6813F4003F59D008
:102CBC003C4A5368334353604B6813F4801F57D01E
:102CCC00384A9368334393604B6813F4001F55D014
:102CDC00344AD3681E43D66001340B6833FA04F2CD
:102CEC0052D00122A24003EA020632EA0303F3D1D6
:102CFC004B68122B3FF64DAF122B3FF66AAF01A774
:102D0C0057F823F0C72B00085F2C0008692C00082B
:102D1C007B2C0008DF2B0008DF2B0008DF2B0008C2
:102D2C00DF2B0008DF2B0008DF2B0008DF2B00084F
:102D3C00DF2B0008DF2B0008DF2B0008DF2B00083F
:102D4C00DF2B0008DF2B0008632C00086F2C000819
:102D5C0001239AE7022398E7124A136823EA060331
:102D6C001360A1E70F4A536823EA06035360A3E7F5
:102D7C000C4A936823EA06039360A5E7094AD368D3
:102D8C0023EA0606D660A7E702B0F0BC704700BF86
:102D9C000000221000003110001002400000014021
:102DAC0000080140000401400AB1016170470904A8
:102DBC0001617047074AD36823F4E0631B041B0CC2
:102DCC00000200F4E060034343F0BF6343F40033BC
:102DDC00D360704700ED00E030B4174BDB68C3F3F1
:102DEC000223C3F10704042C28BF04241D1D062D47
:102DFC0018D9033B4FF0FF3505FA04F421EA04011E
:102E0C00994005FA03F322EA0303194300280BDB6C
:102E1C000901C9B200F1604000F5614080F800136F
:102E2C0030BC70470023E5E700F00F000901C9B280
:102E3C00024B1954F4E700BF00ED00E014ED00E084
:102E4C00002807DB00F01F02400901239340024ACF
:102E5C0042F82030704700BF00E100E00138B0F1CB
:102E6C00807F0AD2064B5860064AF02182F8231064
:102E7C000020986007221A6070470120704700BF3D
:102E8C0010E000E000ED00E0704798B108B5034693
:102E9C00D0F8B40210B10020C3F8B40209B1C3F8E1
:102EAC00B012012183F89C121A701846FDF7B4FB7E
:102EBC00002008BD0220704719B1C0F8B4120020E0
:102ECC0070470220704708B5FDF7E8FB002008BDED
:102EDC0008B5D0F8B4322BB11B68984700B908BDBF
:102EEC000220FCE70220FAE708B5D0F8B4325B68A0
:102EFC009847002008BD38B5044600F52A752846C9
:102F0C0000F034F90123C4F89432B4F8AE32C4F8AA
:102F1C00983294F8A81201F01F03012B0ED0022B4B
:102F2C0011D02BB101F080012046FDF7D2FB03E05C
:102F3C002946204600F0C8FA002038BD2946204614
:102F4C0000F0F6FAF8E72946204600F021FBF3E7FB
:102F5C0038B504460D4691BB1346D0F89422032A8B
:102F6C0003D0052A24D0084633E0D0F86011D0F8FD
:102F7C00642191420DD9891AC0F860118A4206D990
:102F8C008AB21946204600F034FC284621E092B261
:102F9C00F7E7D0F8B4321B691BB190F89C22032AD6
:102FAC0004D0204600F02DFC284612E09847F8E7A4
:102FBC000021C0F89412FDF78CFB284609E0D0F8EC
:102FCC00B4329B6933B190F89C22032A04D1984700
:102FDC00002038BD0220FCE70220FAE738B5044691
:102FEC000D46002953D11346D0F89422022A0CD056
:102FFC00042A00D01AB980212046FDF76AFB94F808
:10300C00A032012B3ED0284638BD016A426A91425B
:10301C001BD8C169B1FBF2F302FB13132BB98A4223
:10302C0003D8D0F8983299421CD3D4F8B432DB6868
:10303C001BB194F89C22032A21D080212046FDF755
:10304C0048FB204600F0E8FBD9E78A1A026292B2EC
:10305C00194600F0B7FB00231A4619462046FDF727
:10306C006FFBCCE70022114600F0ACFB0021C4F84A
:10307C0098120B460A462046FDF762FBBFE7204636
:10308C009847DAE7002384F8A0322846BCE7D0F84A
:10309C00B4325B6933B190F89C22032A04D198476F
:1030AC000020B1E70220AFE70220ADE770B504467F
:1030BC00402300221146FDF7F9FA0125C4F85851B6
:1030CC004026C4F864613346002280212046FDF777
:1030DC00EDFAA561666284F89C520023C4F8943220
:1030EC006360C4F8A432D4F8B8322BB1D4F8B4323B
:1030FC005B68002120469847002070BD01740020B9
:10310C00704790F89C3280F89D32042380F89C32F2
:10311C000020704790F89C32042B01D0002070479F
:10312C0090F89D3280F89C32F8E708B590F89C3204
:10313C00032B01D0002008BDD0F8B432DB69002B82
:10314C00F8D09847F6E7034600201A781AB10130F8
:10315C00C0B20133F9E7704708B54B88012B00D09A
:10316C0008BDC0F8A43200F04CFBF9E70B780370F3
:10317C004B7843708B78CA7803EB022343800B792E
:10318C004A7903EB022383808B79CA7903EB022300
:10319C00C380704710B504468021FDF79AFA0021D0
:1031AC002046FDF796FA10BD30B583B005460C46A7
:1031BC000023ADF806304A88130A013B062B00F2B7
:1031CC00A480DFE803F004182CA2A2869300D0F8A8
:1031DC00B0321B680DF10601007C9847BDF8062043
:1031EC001AB1E388002B40F09480E388002B00F0A8
:1031FC009A8003B030BD037C43B9D0F8B4329B6ADB
:10320C000DF10600984702234370E7E7D0F8B4327B
:10321C00DB6A0DF10600984702234370DEE7D2B259
:10322C00052A52D8DFE802F003101D2A3744D0F8E3
:10323C00B0325B6823B10DF10601007C9847CDE7F5
:10324C002146FFF7A7FFD4E7D0F8B0329B6823B133
:10325C000DF10601007C9847C0E72146FFF79AFF65
:10326C00C7E7D0F8B032DB6823B10DF10601007C62
:10327C009847B3E72146FFF78DFFBAE7D0F8B03295
:10328C001B6923B10DF10601007C9847A6E7214686
:10329C00FFF780FFADE7D0F8B0325B6923B10DF1D9
:1032AC000601007C984799E72146FFF773FFA0E7DA
:1032BC00D0F8B0329B6923B10DF10601007C984720
:1032CC008CE72146FFF766FF93E72146FFF762FF85
:1032DC008FE7037C33B9D0F8B4325B6B0DF1060089
:1032EC0098477BE72146FFF755FF82E7037C43B9FC
:1032FC00D0F8B4321B6B0DF10600984707234370CE
:10330C006CE72146FFF746FF73E72146FFF742FFC4
:10331C006FE79A4228BF1A46ADF8062001462846A8
:10332C0000F043FA61E7284600F06BFA61E738B524
:10333C0004468B88F3B9CB88E3B94B887F2B19D81B
:10334C0003F07F0590F89C32032B0CD080F89E5232
:10335C002946FDF7E5F9204600F053FA35B1022372
:10336C0084F89C3209E0FFF715FF06E0012384F88E
:10337C009C3202E02046FFF70DFF38BD38B50446FD
:10338C000D468978284B197001290ED890F89C327B
:10339C00022B0ED0032B21D02946FFF7FBFE224B2C
:1033AC0019782046FFF7A0FD02E02946FFF7F2FE50
:1033BC0038BD81B14160032380F89C32FFF788FD52
:1033CC00022803D0204600F01CFAF1E729462046DB
:1033DC00FFF7E0FEECE700F014FAE9E789B1436887
:1033EC0099421DD0D9B2FFF77FFD0F4B1978616060
:1033FC002046FFF76DFD02280DD0204600F001FAA3
:10340C00D6E7022380F89C324160FFF76DFD204621
:10341C0000F0F7F9CCE729462046FFF7BBFEC7E7DB
:10342C0000F0EFF9C4E700BFB803002008B5CB8863
:10343C00012B0AD190F89C32022B09D9032B09D10C
:10344C000122011D00F0B1F901E0FFF7A3FE08BD58
:10345C005BB213B9FFF79EFEF9E70146002341F872
:10346C00083F012200F0A1F9F1E708B590F89C3271
:10347C00013B022B12D8CB88022B0CD10123C36049
:10348C00D0F8A4320BB10323C360022200F10C016B
:10349C0000F08BF908BDFFF77DFEFBE7FFF77AFE26
:1034AC00F8E708B590F89C32013B022B09D84B8801
:1034BC00012B00D008BD0023C0F8A43200F0A1F904
:1034CC00F8E7FFF767FEF5E708B50B7803F0600344
:1034DC00202B05D0402B03D043B1FFF75BFE03E05C
:1034EC00D0F8B4329B689847002008BD4B78092B64
:1034FC001BD8DFE803F011171A141A08051A0E0B63
:10350C00FFF752FEF0E7FFF712FFEDE7FFF736FF8C
:10351C00EAE7FFF78BFFE7E7FFF7A7FFE4E7FFF723
:10352C001BFEE1E7FFF7BDFFDEE7FFF733FEDBE74E
:10353C0038B505460C460B7803F06003202B06D0FB
:10354C00402B04D01BB1FFF725FE002038BD95F8A9
:10355C009C32013B022B16D82379012B0ED8D5F8BF
:10356C00B4329B68214628469847E388002BECD15F
:10357C000028EAD1284600F044F9E6E7214628461F
:10358C00FFF708FEE1E721462846FFF703FEDCE7DC
:10359C0070B505468B880C7804F06004202C07D09D
:1035AC00DAB2402C04D05CB1FFF7F4FD002405E046
:1035BC00D5F8B4329B68284698470024204670BD45
:1035CC00202C09D04E78012E33D0032E0AD0002E99
:1035DC0055D0FFF7DFFDF1E7D0F8B4329B68984780
:1035EC000446EBE790F89C32022B04D0032B11D04D
:1035FC00FFF7D0FDE2E70AB1802A03D12846FFF796
:10360C00C9FDDBE71146FDF764F880212846FDF77C
:10361C0060F8D3E74B8823B91AB1802A01D0CB8844
:10362C001BB1284600F0EDF8C8E71146FDF751F83C
:10363C00F7E790F89C32022B04D0032B11D0FFF744
:10364C00A9FDBBE70AB1802A03D12846FFF7A2FDEA
:10365C00B4E71146FDF73DF880212846FDF739F80F
:10366C00ACE74B88002BA9D112F07F0F03D1284671
:10367C0000F0C7F8A2E71146FDF733F8F7E790F82A
:10368C009C02022806D0032829D02846FFF782FD89
:10369C00344693E70AB1802A13D113F0800F15D169
:1036AC0002F07F0202EB8202910001F5A87129441D
:1036BC00043100230B600222284600F076F83446D1
:1036CC007CE72846FFF766FD344677E702F07F0279
:1036DC0002EB82029100103129440431E9E75BB21C
:1036EC00002B1FDB02F00F0000EB800005EB8000CD
:1036FC00D0F8580120B3002B27DB02F07F0303EB3B
:10370C0083039C0004F5A8742C4404340AB1802A69
:10371C0024D10023236002222146284600F045F8DC
:10372C0034464BE702F00F0000EB800005EB800005
:10373C0080690028DFD12846FFF72CFD34463DE791
:10374C002846FFF727FD344638E702F07F0303EBEA
:10375C0083039C0010342C440434D7E711462846CC
:10376C00FCF7C7FF10B101232360D4E700232360CB
:10377C00D1E7C8B170B50D4616460446FFF7E3FC19
:10378C00013040003080287003236B70022307E067
:10379C0001345A1CD2B2E8540233DBB20021A954D2
:1037AC0020780028F4D170BD704710B51346022262
:1037BC00C0F89422C36103620A460021FCF7B8FFEB
:1037CC00002010BD08B513460A460021FCF7B0FFD7
:1037DC00002008BD10B513460322C0F89422C0F88F
:1037EC005C31C0F860310A460021FCF7A9FF0020CB
:1037FC0010BD08B513460A460021FCF7A1FF0020B6
:10380C0008BD08B50423C0F8943200231A461946A3
:10381C00FCF78EFF002008BD08B50523C0F89432D4
:10382C0000231A461946FCF78BFF002008BD10B583
:10383C00D0F8B842D0F8BC325BB194F80002FF2843
:10384C0007D09B6894F8012221469847FF2384F8FF
:10385C000032002010BD0000432303800048704755
:10386C00A40000204323038000487047E800002098
:10387C004323038000487047380100200A2303804B
:10388C00004870472C01002038B50446D0F8B852D7
:10389C00FCF75EFFC5F80C02D4F8B8324BB1D4F883
:1038AC00BC32DB6805F50371D5F80402984700209B
:1038BC0038BD0220FCE738B5D0F8B822D0F8C042A9
:1038CC00F2B101EB810300EB8303DB694BB101EB3C
:1038DC00810504EBC504A56BB3FBF5F405FB1433B0
:1038EC0023B10023C2F81432002038BD01EB810350
:1038FC0000EB83030022DA611346FCF719FFF3E7B0
:10390C000220F2E7F0B583B006460C46D0F8B87248
:10391C0000238DF80730ADF804300B7813F06005F8
:10392C0027D0202D53D1CA88DAB113F0800F0CD0D8
:10393C00D0F8BC329B68394660789847E2883946A3
:10394C003046FFF732FF002544E04B7887F8003211
:10395C008B7987F80132CA883946FFF73BFF00257F
:10396C0038E0D0F8BC329B68002248789847002594
:10397C0030E04F780A2F14D00B2F20D01FB1FFF757
:10398C0009FC022526E090F89C32032B03D0FFF7AC
:10399C0001FC02251EE0022201A9FFF706FF3D46AD
:1039AC0018E090F89C32032B03D0FFF7F3FB0225B1
:1039BC0010E001220DF10701FFF7F7FE0AE090F885
:1039CC009C32032B06D0FFF7E5FB022502E0FFF744
:1039DC00E1FB0225284603B0F0BD38B50446812131
:1039EC00FCF76FFE0025E56201212046FCF769FE1D
:1039FC00C4F86C5182212046FCF763FE2564D4F890
:103A0C00B8324BB1D4F8BC325B689847D4F8B802E2
:103A1C00FCF7A8FEC4F8B852002038BD70B50446B7
:103A2C00037CABBB4FF4007302228121FCF73EFEFA
:103A3C000125E5624FF40073022229462046FCF76B
:103A4C0035FEC4F86C510823032282212046FCF772
:103A5C002DFE012323644FF40770FCF77FFE05460F
:103A6C00C4F8B80268B3D4F8BC321B68984700237A
:103A7C00C5F81432C5F81832267CCEB94FF4007351
:103A8C00D5F8042201212046FCF75AFE304670BDC1
:103A9C00402302228121FCF709FE0125E562402327
:103AAC00022229462046FCF701FEC4F86C51CAE7F5
:103ABC004023D5F8042201212046FCF741FE0026C4
:103ACC00E4E70126E2E719B1C0F8BC120020704708
:103ADC0002207047D0F8B832C3F80812C3F810228D
:103AEC0000207047D0F8B832C3F804120020704799
:103AFC00D0F8B822A2B108B5D2F814320BB101201B
:103B0C0008BD0123C2F81432D2F810320363B2F8A4
:103B1C001032D2F808228121FCF70AFE0020EFE7D0
:103B2C0002207047D0F8B82292B108B5037C43B993
:103B3C004FF40073D2F804220121FCF701FE00209F
:103B4C0008BD4023D2F804220121FCF7F9FDF6E769
:103B5C0002207047002103E00B4B5B5843500431AB
:103B6C000A480B4B42189A42F6D30A4A02E0002349
:103B7C0042F8043B084B9A42F9D3FFF785F900F061
:103B8C000FF8FCF764FB7047A03C00080000002015
:103B9C007C0100207C01002040130020FEE7000087
:103BAC0070B500260C4D0D4C641BA410A64209D117
:103BBC0000F01AF800260A4D0A4C641BA410A64209
:103BCC0005D170BD55F8043B98470136EEE755F822
:103BDC00043B98470136F2E7983C0008983C0008F3
:103BEC00983C00089C3C0008F8B500BFF8BC08BC29
:103BFC009E467047F8B500BFF8BC08BC9E4670479F
:103C0C0053544D3332205669727475616C20436F76
:103C1C006D506F727400000053544D6963726F6580
:103C2C006C656374726F6E69637300004344432068
:103C3C00436F6E666967000043444320496E7465A8
:103C4C00726661636500000050433133204C45447B
:103C5C00204F4E210A0D000050433133204C454477
:103C6C00204F4646210A0D000203040506070809E9
:103C7C000A0B0C0D0E0F10100000000000000000CD
:0C3C8C0000000000010203040607080904
:043C980031010008EE
:043C9C000D0100080E
:103CA000310300083D030008ED030008C9030008C4
:103CB000B5030008090400082D04000812010002E1
:103CC0000202004083044057000201020301000089
:103CD000040309041A0300000000000000000000B3
:103CE00000000000000000000000000000000000D4
:103CF000590400085104000855040008AD040008E8
:103D000001000000100000000024F400293A00081F
:103D1000E739000811390008000000003B380008AE
:103D2000C3380008953800080000000000000000BB
:103D30000000000071380008653800087D38000870
:103D40008938000809024300020100C0320904005A
:103D500000010202010005240010010524010001F8
:103D6000042402020524060001070582030800104E
:103D700009040100020A00000007050102400000DA
:103D8000070581024000000009024300020100C053
:103D9000320904000001020201000524001001059F
:103DA0002401000104240202052406000107058203
:103DB0000308001009040100020A000000070501C1
:103DC0000200020007058102000200000A0600024C
:103DD000000000400100000009074300020104C088
:103DE000320904000001020201000524001001054F
:103DF00024010001042402020524060001070582B3
:103E00000308001009040100020A00000007050170
:0C3E100002400000070581024000000095
:0400000508003B6153
:00000001FF
